{
  "_format": "hh-sol-artifact-1",
  "contractName": "NicStakingV2",
  "sourceName": "contracts/NicStakingV2.sol",
  "abi": [
    {
      "inputs": [],
      "stateMutability": "nonpayable",
      "type": "constructor"
    },
    {
      "inputs": [],
      "name": "AccessControlBadConfirmation",
      "type": "error"
    },
    {
      "inputs": [
        {
          "internalType": "address",
          "name": "account",
          "type": "address"
        },
        {
          "internalType": "bytes32",
          "name": "neededRole",
          "type": "bytes32"
        }
      ],
      "name": "AccessControlUnauthorizedAccount",
      "type": "error"
    },
    {
      "inputs": [
        {
          "internalType": "address",
          "name": "target",
          "type": "address"
        }
      ],
      "name": "AddressEmptyCode",
      "type": "error"
    },
    {
      "inputs": [
        {
          "internalType": "address",
          "name": "account",
          "type": "address"
        }
      ],
      "name": "AddressInsufficientBalance",
      "type": "error"
    },
    {
      "inputs": [
        {
          "internalType": "address",
          "name": "implementation",
          "type": "address"
        }
      ],
      "name": "ERC1967InvalidImplementation",
      "type": "error"
    },
    {
      "inputs": [],
      "name": "ERC1967NonPayable",
      "type": "error"
    },
    {
      "inputs": [],
      "name": "FailedInnerCall",
      "type": "error"
    },
    {
      "inputs": [],
      "name": "InvalidInitialization",
      "type": "error"
    },
    {
      "inputs": [],
      "name": "NotInitializing",
      "type": "error"
    },
    {
      "inputs": [],
      "name": "ReentrancyGuardReentrantCall",
      "type": "error"
    },
    {
      "inputs": [
        {
          "internalType": "address",
          "name": "token",
          "type": "address"
        }
      ],
      "name": "SafeERC20FailedOperation",
      "type": "error"
    },
    {
      "inputs": [],
      "name": "UUPSUnauthorizedCallContext",
      "type": "error"
    },
    {
      "inputs": [
        {
          "internalType": "bytes32",
          "name": "slot",
          "type": "bytes32"
        }
      ],
      "name": "UUPSUnsupportedProxiableUUID",
      "type": "error"
    },
    {
      "anonymous": false,
      "inputs": [
        {
          "indexed": true,
          "internalType": "address",
          "name": "underlyingToken",
          "type": "address"
        },
        {
          "indexed": true,
          "internalType": "address",
          "name": "nToken",
          "type": "address"
        }
      ],
      "name": "CreateNToken",
      "type": "event"
    },
    {
      "anonymous": false,
      "inputs": [
        {
          "indexed": false,
          "internalType": "uint64",
          "name": "version",
          "type": "uint64"
        }
      ],
      "name": "Initialized",
      "type": "event"
    },
    {
      "anonymous": false,
      "inputs": [
        {
          "indexed": true,
          "internalType": "bytes32",
          "name": "role",
          "type": "bytes32"
        },
        {
          "indexed": true,
          "internalType": "bytes32",
          "name": "previousAdminRole",
          "type": "bytes32"
        },
        {
          "indexed": true,
          "internalType": "bytes32",
          "name": "newAdminRole",
          "type": "bytes32"
        }
      ],
      "name": "RoleAdminChanged",
      "type": "event"
    },
    {
      "anonymous": false,
      "inputs": [
        {
          "indexed": true,
          "internalType": "bytes32",
          "name": "role",
          "type": "bytes32"
        },
        {
          "indexed": true,
          "internalType": "address",
          "name": "account",
          "type": "address"
        },
        {
          "indexed": true,
          "internalType": "address",
          "name": "sender",
          "type": "address"
        }
      ],
      "name": "RoleGranted",
      "type": "event"
    },
    {
      "anonymous": false,
      "inputs": [
        {
          "indexed": true,
          "internalType": "bytes32",
          "name": "role",
          "type": "bytes32"
        },
        {
          "indexed": true,
          "internalType": "address",
          "name": "account",
          "type": "address"
        },
        {
          "indexed": true,
          "internalType": "address",
          "name": "sender",
          "type": "address"
        }
      ],
      "name": "RoleRevoked",
      "type": "event"
    },
    {
      "anonymous": false,
      "inputs": [
        {
          "indexed": false,
          "internalType": "uint256",
          "name": "initTime",
          "type": "uint256"
        }
      ],
      "name": "SetInitTime",
      "type": "event"
    },
    {
      "anonymous": false,
      "inputs": [
        {
          "indexed": true,
          "internalType": "address",
          "name": "token",
          "type": "address"
        },
        {
          "indexed": false,
          "internalType": "bool",
          "name": "isStakable",
          "type": "bool"
        }
      ],
      "name": "SetStakableToken",
      "type": "event"
    },
    {
      "anonymous": false,
      "inputs": [
        {
          "indexed": true,
          "internalType": "address",
          "name": "token",
          "type": "address"
        },
        {
          "indexed": false,
          "internalType": "bool",
          "name": "isUnStakable",
          "type": "bool"
        }
      ],
      "name": "SetUnStakable",
      "type": "event"
    },
    {
      "anonymous": false,
      "inputs": [
        {
          "indexed": true,
          "internalType": "address",
          "name": "staker",
          "type": "address"
        },
        {
          "indexed": true,
          "internalType": "address",
          "name": "token",
          "type": "address"
        },
        {
          "indexed": false,
          "internalType": "uint256",
          "name": "amount",
          "type": "uint256"
        },
        {
          "indexed": false,
          "internalType": "uint256",
          "name": "stage",
          "type": "uint256"
        }
      ],
      "name": "Staked",
      "type": "event"
    },
    {
      "anonymous": false,
      "inputs": [
        {
          "indexed": true,
          "internalType": "uint256",
          "name": "stageIndex",
          "type": "uint256"
        },
        {
          "indexed": false,
          "internalType": "uint256",
          "name": "startTime",
          "type": "uint256"
        },
        {
          "indexed": false,
          "internalType": "uint256",
          "name": "endTime",
          "type": "uint256"
        }
      ],
      "name": "StartStage",
      "type": "event"
    },
    {
      "anonymous": false,
      "inputs": [
        {
          "indexed": true,
          "internalType": "address",
          "name": "staker",
          "type": "address"
        },
        {
          "indexed": true,
          "internalType": "address",
          "name": "token",
          "type": "address"
        },
        {
          "indexed": false,
          "internalType": "uint256",
          "name": "amount",
          "type": "uint256"
        }
      ],
      "name": "Unstaked",
      "type": "event"
    },
    {
      "anonymous": false,
      "inputs": [
        {
          "indexed": true,
          "internalType": "address",
          "name": "implementation",
          "type": "address"
        }
      ],
      "name": "Upgraded",
      "type": "event"
    },
    {
      "anonymous": false,
      "inputs": [
        {
          "indexed": true,
          "internalType": "address",
          "name": "token",
          "type": "address"
        },
        {
          "indexed": false,
          "internalType": "uint256",
          "name": "amount",
          "type": "uint256"
        },
        {
          "indexed": true,
          "internalType": "address",
          "name": "receiver",
          "type": "address"
        },
        {
          "indexed": false,
          "internalType": "address",
          "name": "operator",
          "type": "address"
        },
        {
          "indexed": false,
          "internalType": "uint256",
          "name": "epoch",
          "type": "uint256"
        }
      ],
      "name": "Withdraw",
      "type": "event"
    },
    {
      "inputs": [],
      "name": "AdminRole",
      "outputs": [
        {
          "internalType": "bytes32",
          "name": "",
          "type": "bytes32"
        }
      ],
      "stateMutability": "view",
      "type": "function"
    },
    {
      "inputs": [],
      "name": "DEFAULT_ADMIN_ROLE",
      "outputs": [
        {
          "internalType": "bytes32",
          "name": "",
          "type": "bytes32"
        }
      ],
      "stateMutability": "view",
      "type": "function"
    },
    {
      "inputs": [],
      "name": "GAS",
      "outputs": [
        {
          "internalType": "address",
          "name": "",
          "type": "address"
        }
      ],
      "stateMutability": "view",
      "type": "function"
    },
    {
      "inputs": [],
      "name": "OperateRole",
      "outputs": [
        {
          "internalType": "bytes32",
          "name": "",
          "type": "bytes32"
        }
      ],
      "stateMutability": "view",
      "type": "function"
    },
    {
      "inputs": [],
      "name": "UPGRADE_INTERFACE_VERSION",
      "outputs": [
        {
          "internalType": "string",
          "name": "",
          "type": "string"
        }
      ],
      "stateMutability": "view",
      "type": "function"
    },
    {
      "inputs": [],
      "name": "UpdateRole",
      "outputs": [
        {
          "internalType": "bytes32",
          "name": "",
          "type": "bytes32"
        }
      ],
      "stateMutability": "view",
      "type": "function"
    },
    {
      "inputs": [
        {
          "internalType": "uint256",
          "name": "stage",
          "type": "uint256"
        },
        {
          "internalType": "address",
          "name": "token",
          "type": "address"
        }
      ],
      "name": "addStakableToken",
      "outputs": [],
      "stateMutability": "nonpayable",
      "type": "function"
    },
    {
      "inputs": [],
      "name": "getCurrentStage",
      "outputs": [
        {
          "internalType": "uint256",
          "name": "",
          "type": "uint256"
        }
      ],
      "stateMutability": "view",
      "type": "function"
    },
    {
      "inputs": [
        {
          "internalType": "bytes32",
          "name": "role",
          "type": "bytes32"
        }
      ],
      "name": "getRoleAdmin",
      "outputs": [
        {
          "internalType": "bytes32",
          "name": "",
          "type": "bytes32"
        }
      ],
      "stateMutability": "view",
      "type": "function"
    },
    {
      "inputs": [
        {
          "internalType": "bytes32",
          "name": "role",
          "type": "bytes32"
        },
        {
          "internalType": "uint256",
          "name": "index",
          "type": "uint256"
        }
      ],
      "name": "getRoleMember",
      "outputs": [
        {
          "internalType": "address",
          "name": "",
          "type": "address"
        }
      ],
      "stateMutability": "view",
      "type": "function"
    },
    {
      "inputs": [
        {
          "internalType": "bytes32",
          "name": "role",
          "type": "bytes32"
        }
      ],
      "name": "getRoleMemberCount",
      "outputs": [
        {
          "internalType": "uint256",
          "name": "",
          "type": "uint256"
        }
      ],
      "stateMutability": "view",
      "type": "function"
    },
    {
      "inputs": [
        {
          "internalType": "uint256",
          "name": "stageIndex",
          "type": "uint256"
        }
      ],
      "name": "getStakableTokens",
      "outputs": [
        {
          "internalType": "address[]",
          "name": "",
          "type": "address[]"
        }
      ],
      "stateMutability": "view",
      "type": "function"
    },
    {
      "inputs": [
        {
          "internalType": "bytes32",
          "name": "role",
          "type": "bytes32"
        },
        {
          "internalType": "address",
          "name": "account",
          "type": "address"
        }
      ],
      "name": "grantRole",
      "outputs": [],
      "stateMutability": "nonpayable",
      "type": "function"
    },
    {
      "inputs": [
        {
          "internalType": "bytes32",
          "name": "role",
          "type": "bytes32"
        },
        {
          "internalType": "address",
          "name": "account",
          "type": "address"
        }
      ],
      "name": "hasRole",
      "outputs": [
        {
          "internalType": "bool",
          "name": "",
          "type": "bool"
        }
      ],
      "stateMutability": "view",
      "type": "function"
    },
    {
      "inputs": [
        {
          "internalType": "address",
          "name": "admin",
          "type": "address"
        },
        {
          "internalType": "address[]",
          "name": "updaters",
          "type": "address[]"
        },
        {
          "internalType": "address[]",
          "name": "operators",
          "type": "address[]"
        },
        {
          "internalType": "address",
          "name": "_neo",
          "type": "address"
        }
      ],
      "name": "initialize",
      "outputs": [],
      "stateMutability": "nonpayable",
      "type": "function"
    },
    {
      "inputs": [
        {
          "internalType": "uint256",
          "name": "stageIndex",
          "type": "uint256"
        }
      ],
      "name": "isInStage",
      "outputs": [
        {
          "internalType": "bool",
          "name": "",
          "type": "bool"
        }
      ],
      "stateMutability": "view",
      "type": "function"
    },
    {
      "inputs": [],
      "name": "isOutOfStage",
      "outputs": [
        {
          "internalType": "bool",
          "name": "",
          "type": "bool"
        }
      ],
      "stateMutability": "view",
      "type": "function"
    },
    {
      "inputs": [
        {
          "internalType": "uint256",
          "name": "stageIndex",
          "type": "uint256"
        },
        {
          "internalType": "address",
          "name": "token",
          "type": "address"
        }
      ],
      "name": "isStakableToken",
      "outputs": [
        {
          "internalType": "bool",
          "name": "",
          "type": "bool"
        }
      ],
      "stateMutability": "view",
      "type": "function"
    },
    {
      "inputs": [
        {
          "internalType": "address",
          "name": "token",
          "type": "address"
        }
      ],
      "name": "isStakeable",
      "outputs": [
        {
          "internalType": "bool",
          "name": "",
          "type": "bool"
        }
      ],
      "stateMutability": "view",
      "type": "function"
    },
    {
      "inputs": [
        {
          "internalType": "address",
          "name": "token",
          "type": "address"
        }
      ],
      "name": "isUnStakable",
      "outputs": [
        {
          "internalType": "bool",
          "name": "",
          "type": "bool"
        }
      ],
      "stateMutability": "view",
      "type": "function"
    },
    {
      "inputs": [],
      "name": "lastStage",
      "outputs": [
        {
          "internalType": "uint256",
          "name": "",
          "type": "uint256"
        }
      ],
      "stateMutability": "view",
      "type": "function"
    },
    {
      "inputs": [
        {
          "internalType": "address",
          "name": "underlyingToken",
          "type": "address"
        }
      ],
      "name": "nTokens",
      "outputs": [
        {
          "internalType": "address",
          "name": "nToken",
          "type": "address"
        }
      ],
      "stateMutability": "view",
      "type": "function"
    },
    {
      "inputs": [],
      "name": "neo",
      "outputs": [
        {
          "internalType": "address",
          "name": "",
          "type": "address"
        }
      ],
      "stateMutability": "view",
      "type": "function"
    },
    {
      "inputs": [],
      "name": "proxiableUUID",
      "outputs": [
        {
          "internalType": "bytes32",
          "name": "",
          "type": "bytes32"
        }
      ],
      "stateMutability": "view",
      "type": "function"
    },
    {
      "inputs": [
        {
          "internalType": "bytes32",
          "name": "role",
          "type": "bytes32"
        },
        {
          "internalType": "address",
          "name": "callerConfirmation",
          "type": "address"
        }
      ],
      "name": "renounceRole",
      "outputs": [],
      "stateMutability": "nonpayable",
      "type": "function"
    },
    {
      "inputs": [
        {
          "internalType": "bytes32",
          "name": "role",
          "type": "bytes32"
        },
        {
          "internalType": "address",
          "name": "account",
          "type": "address"
        }
      ],
      "name": "revokeRole",
      "outputs": [],
      "stateMutability": "nonpayable",
      "type": "function"
    },
    {
      "inputs": [
        {
          "internalType": "address[]",
          "name": "tokens",
          "type": "address[]"
        },
        {
          "internalType": "bool[]",
          "name": "isUnStakables",
          "type": "bool[]"
        }
      ],
      "name": "setUnStakable",
      "outputs": [],
      "stateMutability": "nonpayable",
      "type": "function"
    },
    {
      "inputs": [
        {
          "internalType": "uint256",
          "name": "stageIndex",
          "type": "uint256"
        }
      ],
      "name": "stages",
      "outputs": [
        {
          "internalType": "uint256",
          "name": "startTime",
          "type": "uint256"
        },
        {
          "internalType": "uint256",
          "name": "endTime",
          "type": "uint256"
        }
      ],
      "stateMutability": "view",
      "type": "function"
    },
    {
      "inputs": [
        {
          "internalType": "address",
          "name": "token",
          "type": "address"
        },
        {
          "internalType": "uint256",
          "name": "amount",
          "type": "uint256"
        }
      ],
      "name": "stake",
      "outputs": [],
      "stateMutability": "payable",
      "type": "function"
    },
    {
      "inputs": [
        {
          "internalType": "address",
          "name": "staker",
          "type": "address"
        },
        {
          "internalType": "address",
          "name": "token",
          "type": "address"
        }
      ],
      "name": "stakedAmounts",
      "outputs": [
        {
          "internalType": "uint256",
          "name": "",
          "type": "uint256"
        }
      ],
      "stateMutability": "view",
      "type": "function"
    },
    {
      "inputs": [
        {
          "internalType": "uint256",
          "name": "startTime",
          "type": "uint256"
        },
        {
          "internalType": "uint256",
          "name": "endTime",
          "type": "uint256"
        },
        {
          "internalType": "address[]",
          "name": "tokens",
          "type": "address[]"
        }
      ],
      "name": "startStage",
      "outputs": [],
      "stateMutability": "nonpayable",
      "type": "function"
    },
    {
      "inputs": [
        {
          "internalType": "bytes4",
          "name": "interfaceId",
          "type": "bytes4"
        }
      ],
      "name": "supportsInterface",
      "outputs": [
        {
          "internalType": "bool",
          "name": "",
          "type": "bool"
        }
      ],
      "stateMutability": "view",
      "type": "function"
    },
    {
      "inputs": [
        {
          "internalType": "address",
          "name": "underlyingToken",
          "type": "address"
        }
      ],
      "name": "unStackable",
      "outputs": [
        {
          "internalType": "bool",
          "name": "",
          "type": "bool"
        }
      ],
      "stateMutability": "view",
      "type": "function"
    },
    {
      "inputs": [
        {
          "internalType": "address",
          "name": "token",
          "type": "address"
        },
        {
          "internalType": "uint256",
          "name": "amount",
          "type": "uint256"
        }
      ],
      "name": "unstake",
      "outputs": [],
      "stateMutability": "nonpayable",
      "type": "function"
    },
    {
      "inputs": [
        {
          "internalType": "address",
          "name": "newImplementation",
          "type": "address"
        },
        {
          "internalType": "bytes",
          "name": "data",
          "type": "bytes"
        }
      ],
      "name": "upgradeToAndCall",
      "outputs": [],
      "stateMutability": "payable",
      "type": "function"
    },
    {
      "inputs": [
        {
          "internalType": "address",
          "name": "token",
          "type": "address"
        },
        {
          "internalType": "uint256",
          "name": "amount",
          "type": "uint256"
        },
        {
          "internalType": "address",
          "name": "receiver",
          "type": "address"
        }
      ],
      "name": "withdraw",
      "outputs": [],
      "stateMutability": "nonpayable",
      "type": "function"
    },
    {
      "stateMutability": "payable",
      "type": "receive"
    }
  ],
  "bytecode": "0x60a080604052346100cd57306080527ff0c57e16840df040f15088dc2f81fe391c3923bec73e23a9662efc9c229c6a009081549060ff8260401c166100be57506001600160401b036002600160401b031982821601610079575b6040516139539081620000d3823960805181818161100201526111bb0152f35b6001600160401b031990911681179091556040519081527fc7f505b2f371ae2175ee4913f4499e1f2633a7b5936321eed1cdaeb6115181d290602090a1388080610059565b63f92ee8a960e01b8152600490fd5b600080fdfe60406080815260048036101562000073575b36156200001d57600080fd5b6020608492519162461bcd60e51b8352820152602b60248201527f4e69635374616b696e673a206e6f7420737570706f727420646972656374207460448201526a72616e736665722047415360a81b6064820152fd5b6000803560e01c80620689e014620018f557806301a470e814620017b657806301ffc9a7146200187a5780631a76d14d14620018195780631bd3fc8614620017f85780631ee76dcd14620017b6578063248a9ca314620017895780632f2ff15d146200171257806336568abe14620016c5578063443124db14620013f557806344350d5f14620013ca5780634f1ef28614620011375780635083cf76146200106757806352d1902d1462000fea5780635ba6fbfd1462000f9b5780635bd83d1c1462000f5c578063649a8f341462000f2d57806364a28e8f1462000db457806369328dec1462000c4c578063845ddcb21462000c175780638910e1ed1462000bda5780639010d07c1462000b9457806391d148541462000b49578063a171d7841462000b24578063a217fddf1462000b07578063a86527fe1462000adb578063ad3cb1cc1462000a68578063adc9772e146200075a578063b19ff54b146200072e578063bb1913f314620006fd578063beae86941462000640578063c2a672e014620002f9578063ca15c87314620002ce578063d547741f1462000284578063d565221b146200025a5763eedbe31d146200022f575062000011565b823462000256578160031936011262000256576020906200024f62002a9d565b9051908152f35b5080fd5b50823462000256578160031936011262000256576020906200027b620026f2565b90519015158152f35b509134620002ca5780600319360112620002ca57620002c69135620002c06001620002ae62001ccd565b93838752866020528620015462001eb3565b620020fd565b5080f35b8280fd5b50919034620002ca576020366003190112620002ca5760209282913581526001845220549051908152f35b509134620002ca5780600319360112620002ca576200031762001cb6565b602435906200032562002527565b60018060a01b03809116928386526020916006835260ff828820541615620005f1578673eeeeeeeeeeeeeeeeeeeeeeeeeeeeeeeeeeeeeeee861491821580620005e2575b156200053457868252600385528382205416803b1562000256578351632770a7eb60e21b815233818a01908152602081018890529091839183919082908490829060400103925af180156200052a576200050e575b50505b1562000437578293945062000409868080807fd8654fcc8cf5b36d30b3f5e4688fc78118e6d68de60b9994e09902268b57c3e397335af162000402620021b3565b9062002641565b519283523392a360017f9b779b17422d0df92223018b32b4d1fa46e071723d6817e2486d003becc55f005580f35b8051946370a0823160e01b865230908601528185602481875afa801562000504578394958791620004a6575b507fd8654fcc8cf5b36d30b3f5e4688fc78118e6d68de60b9994e09902268b57c3e39362000493911015620025f5565b620004a084338762002674565b62000409565b809450838092503d8311620004fc575b620004c2818362001d0e565b81010312620004f75791518392907fd8654fcc8cf5b36d30b3f5e4688fc78118e6d68de60b9994e09902268b57c3e362000463565b600080fd5b503d620004b6565b81513d88823e3d90fd5b620005199062001ce4565b62000526578638620003be565b8680fd5b84513d84823e3d90fd5b50503387526002835281872085600052835283826000205410620005905733875260028352818720856000528352816000208054908582039182116200057b5755620003c1565b601188634e487b7160e01b6000525260246000fd5b815162461bcd60e51b8152808701849052602660248201527f4e69635374616b696e673a20696e73756666696369656e74207374616b656420604482015265185b5bdd5b9d60d21b6064820152608490fd5b50806007541687141562000369565b815162461bcd60e51b8152808701849052602360248201527f4e69635374616b696e673a20746f6b656e206973206e6f7420756e7374616b61604482015262626c6560e81b6064820152608490fd5b5034620006fa5760209182600319360112620002565792919235815260058352600282822001908251808584549182815201908194845286842090845b818110620006dc57505050816200069691038262001d0e565b83519485948186019282875251809352850193925b828110620006bb57505050500390f35b83516001600160a01b031685528695509381019392810192600101620006ab565b82546001600160a01b0316845292880192600192830192016200067d565b80fd5b50823462000256578160031936011262000256576020905173eeeeeeeeeeeeeeeeeeeeeeeeeeeeeeeeeeeeeeee8152f35b508234620002565781600319360112620002565760209051600080516020620038fe8339815191528152f35b50828060031936011262000256576200077262001cb6565b926024918235916200078362002527565b6200078d62002a9d565b906200079862002a9d565b87620007a482620026bb565b918262000a54575b50501562000a0857620007c1841515620024da565b6001600160a01b039687169473eeeeeeeeeeeeeeeeeeeeeeeeeeeeeeeeeeeeeeee86148015620009a75785340362000965575b158062000956575b15620008f25750909192939480968682526003602052848220541691823b15620002565784516340c10f1960e01b8152339181019182526020820187905292839182908490829060400103925af18015620008e857620008b0575b50907f6c86f3fd5118b3aa8bb4f389a617046de0a3d3d477de1a1673d227f802f616dc915b815193845260208401523392a360017f9b779b17422d0df92223018b32b4d1fa46e071723d6817e2486d003becc55f005580f35b94620008df7f6c86f3fd5118b3aa8bb4f389a617046de0a3d3d477de1a1673d227f802f616dc93929662001ce4565b94909162000857565b83513d88823e3d90fd5b965033865260026020528286208587526020528286208054918583018093116200094457507f6c86f3fd5118b3aa8bb4f389a617046de0a3d3d477de1a1673d227f802f616dc9495969750556200087c565b634e487b7160e01b8852601190528787fd5b508760075416861415620007fc565b845162461bcd60e51b8152602081850152601c818401527f4e69635374616b696e673a20696e73756666696369656e7420474153000000006044820152606490fd5b84516323b872dd60e01b602082015233838201523060448201526064808201889052815260a081016001600160401b03811182821017620009f6578652620009f090886200256a565b620007f4565b634e487b7160e01b8a5260418552838afd5b608490602186602086519362461bcd60e51b85528401528201527f4e69635374616b696e673a20746f6b656e206973206e6f74207374616b61626c6044820152606560f81b6064820152fd5b62000a6092506200272a565b8789620007ac565b5082346200025657816003193601126200025657805191818301908382106001600160401b0383111762000ac8575062000ac49350815260058252640352e302e360dc1b60208301525191829160208352602083019062001e22565b0390f35b634e487b7160e01b815260418552602490fd5b508234620002565781600319360112620002565760209051600080516020620038de8339815191528152f35b508234620002565781600319360112620002565751908152602090f35b50829034620006fa576020366003190112620006fa57506200027b60209235620026bb565b50919034620002ca5781600319360112620002ca578160209360ff9262000b6f62001ccd565b903582528186528282206001600160a01b039091168252855220549151911615158152f35b50919034620002ca5781600319360112620002ca5760209262000bc4913581526001845282602435912062002250565b905491519160018060a01b039160031b1c168152f35b5082346200025657816003193601126200025657602090517f3cae3527822146eb05dbfe28ef7fa764bd9bd837e7f55a8d812b9ccca9ac73cc8152f35b50919034620002ca576020366003190112620002ca579181923581526005602052206001815491015482519182526020820152f35b50919034620002ca576060366003190112620002ca5762000c6c62001cb6565b6024359260443592916001600160a01b03908185168503620005265762000c9262001e49565b168062000d12575083471062000cbd57505082808062000cba9481945af162000402620021b3565b80f35b906020608492519162461bcd60e51b8352820152602960248201527f4e69635374616b696e673a20776974686472617720696e73756666696369656e604482015268742062616c616e636560b81b6064820152fd5b919093925062000d24831515620024da565b8351906370a0823160e01b82523090820152602081602481855afa93841562000dab5750849362000d6b575b5062000d638262000cba941015620025f5565b339062002674565b92506020833d821162000da2575b8162000d886020938362001d0e565b8101031262000d9e5791519162000d6362000d50565b8380fd5b3d915062000d79565b513d86823e3d90fd5b509134620002ca5780600319360112620002ca576001600160401b0391803583811162000f295762000dea903690830162001dca565b909360243590811162000f255762000e06903690840162001dca565b91909262000e1362001e49565b82820362000ee25750855b81811062000e2a578680f35b80827f32694bc1d79827381c0cfa3c1c13ee1e65a19ceaeeaeee8db751ab1adecde1b962000e6862000e6262000edc95888a620027e0565b620027f1565b6001600160a01b0392839062000e8c9062000e869087908e620027e0565b620027ff565b168b5260209060068252898c209060ff80198354169115151617905562000eb962000e8685888d620027e0565b9262000ecb62000e62868a8c620027e0565b938a5194151585521692a26200241b565b62000e1e565b606490602086519162461bcd60e51b8352820152601960248201527f4e69635374616b696e673a20696e76616c696420696e707574000000000000006044820152fd5b8580fd5b8480fd5b50829034620006fa5781600319360112620006fa57506200027b60209262000f5462001ccd565b90356200272a565b5082346200025657602036600319011262000256576020916001600160a01b039082908262000f8a62001cb6565b168152600385522054169051908152f35b50823462000256578060031936011262000256578060209262000fbd62001cb6565b62000fc762001ccd565b6001600160a01b0391821683526002865283832091168252845220549051908152f35b50829034620006fa5780600319360112620006fa57507f00000000000000000000000000000000000000000000000000000000000000006001600160a01b031630036200105a57602090517f360894a13ba1a3210667c828492db98dca3e2076cc3735a920a3ca505d382bbc8152f35b5163703e46dd60e11b8152fd5b509134620002ca5780600319360112620002ca5760207fba2efd49e53ac7226c6d81c0e5cb73cdada9456198f9cbbaa9246822a62671dd91620010a962001ccd565b620010b362001e49565b6001600160a01b0381811695620010cc87151562002441565b35875260058452620010e4826002858a20016200249c565b73eeeeeeeeeeeeeeeeeeeeeeeeeeeeeeeeeeeeeeee861415908162001127575b5062001115575b505160018152a280f35b62001120906200287f565b386200110b565b9050600754168514153862001104565b509180600319360112620002ca576200114f62001cb6565b9060249384356001600160401b03811162000256573660238201121562000256578085013593620011808562001dae565b6200118e8551918262001d0e565b85815260209586820193368a838301011162000f25578186928b8a93018737830101526001600160a01b037f000000000000000000000000000000000000000000000000000000000000000081163081149081156200139b575b506200138b57600080516020620038de833981519152808652858852868620338752885260ff8787205416156200136e575085516352d1902d60e01b81529083169680828a818b5afa918291879362001338575b5050620012595750505050505191634c9c8ce360e01b8352820152fd5b86899689927f360894a13ba1a3210667c828492db98dca3e2076cc3735a920a3ca505d382bbc90818103620013235750853b156200130e5780546001600160a01b0319168317905551869392917fbc7cd75a20ee27fd9adebab32041f755214dbc6bffa90cc0225b39da2e5c2d3b8580a2825115620012f1575050620002c69382915190845af4620012ea620021b3565b91620021e8565b935093505050346200130257505080f35b63b398979f60e01b8152fd5b5051634c9c8ce360e01b815291820152859150fd5b848a91845191632a87526960e21b8352820152fd5b9080929350813d831162001366575b62001353818362001d0e565b8101031262000f2557519038806200123c565b503d62001347565b865163e2517d3f60e01b815233818b0152808b0191909152604490fd5b855163703e46dd60e11b81528890fd5b9050817f360894a13ba1a3210667c828492db98dca3e2076cc3735a920a3ca505d382bbc5416141538620011e8565b508234620002565781600319360112620002565760075490516001600160a01b039091168152602090f35b5090346200025657606036600319011262000256578035926024938435604435936001600160401b0394858111620005265762001436903690830162001d30565b966200144162001e49565b8284101562001669576200145682546200241b565b958683558551906060820182811082821117620009f657908a91885286835260026020998a8501908882528a86019d8e528c5260058b52898c2094518555519360019485820155019a519a8b519182116200165757600160401b9b8c831162001645578a908c8484549181865582821062001612575b50505001908b52898b20848c5b848110620015f6575050505050805190828a5b838110620015b257505050508254885260058752600286892001918254998a1015620015a157508862001593926200154b927f133e79f27126b54bc22a0e70c46db6559bef0ca61d2020473b121f28eaedac6e999a9b01815562002250565b9080549160031b60018060a01b03928373eeeeeeeeeeeeeeeeeeeeeeeeeeeeeeeeeeeeeeee831b921b191617905582548952600588526002868a20019060075416906200249c565b54948351928352820152a280f35b634e487b7160e01b89526041845288fd5b620015ed6001600160a01b03620015d981620015cf858862002406565b5116151562002441565b620015e5838662002406565b51166200287f565b018390620014ec565b83516001600160a01b031683820155928c0192869101620014d9565b889150858152868582209384019301905b83821062001636579050869150620014cc565b81558e94508891018f62001623565b634e487b7160e01b8c5260418752858cfd5b634e487b7160e01b8b5260418652848bfd5b906031608492602087519362461bcd60e51b85528401528201527f4e69635374616b696e673a20737461727454696d652073686f756c64206265206044820152706c657373207468616e20656e6454696d6560781b6064820152fd5b5082346200025657806003193601126200025657620016e362001ccd565b90336001600160a01b03831603620017035750620002c6919235620020fd565b5163334bd91960e11b81528390fd5b50919034620002ca5781600319360112620002ca5735906200173362001ccd565b90828452836020526200174c6001828620015462001eb3565b62001758828462002094565b62001761578380f35b918352600160205290822062001781916001600160a01b0316906200227f565b503880808380f35b50919034620002ca576020366003190112620002ca57816020936001923581528085522001549051908152f35b50823462000256576020366003190112620002565760209160ff9082906001600160a01b03620017e562001cb6565b1681526006855220541690519015158152f35b50919034620002ca5782600319360112620002ca5760209250549051908152f35b5082346200025657602036600319011262000256576020906200183b62001cb6565b906200184662002a9d565b916200185283620026bb565b928362001864575b5050519015158152f35b620018719293506200272a565b9083806200185a565b50919034620002ca576020366003190112620002ca57359063ffffffff60e01b8216809203620002ca5760209250635a05180f60e01b8214918215620018c4575b50519015158152f35b909150637965db0b60e01b8114908115620018e3575b509038620018bb565b6301ffc9a760e01b14905038620018da565b5082346200025657608036600319011262000256576200191462001cb6565b90602435936001600160401b039485811162000f295762001939903690830162001d30565b9460443581811162000f255762001954903690840162001d30565b916064359660018060a01b039586891680990362001cb2577ff0c57e16840df040f15088dc2f81fe391c3923bec73e23a9662efc9c229c6a009687549560ff87891c16159587169687158062001caa575b6001809914908162001c9f575b15908162001c95575b5062001c855767ffffffffffffffff19811688178a558662001c65575b50818316801562001c145799809b899a9b7f3cae3527822146eb05dbfe28ef7fa764bd9bd837e7f55a8d812b9ccca9ac73cc9a999a9081845260209c848e9586528d8083832001968588549855857fbd79b86ffe0ab8e8776151514217cd7cacd52c909f66475c3af44e129f0b00ff98818a8680a462001aa0600080516020620038de8339815191529b8c8552878d85888820019082825492558c8880a487600080516020620038fe8339815191529a8b87528b86898920019183835493558880a462001eda565b62001bf8575b505099989796959493925050506bffffffffffffffffffffffff60a01b60075416176007558151918a885b8d85821062001b995750505050505082519288865b85811062001b3d575050505050505562001afe578480f35b7fc7f505b2f371ae2175ee4913f4499e1f2633a7b5936321eed1cdaeb6115181d29368ff000000000000000019815416905551908152a1818080808480f35b909192939495968b908a8662001b54858862002406565b5116918562001b638462002008565b62001b7d575b50505050500193929190888c969562001ae6565b62001b8d948a835252206200227f565b508a8e8a8f8562001b69565b909192939495969798998c8862001bb1858862002406565b5116918562001bc08462001f7c565b62001bdc575b5050505050019291908a8e989796959462001ad1565b62001bec9489835252206200227f565b508c8f8c818562001bc6565b62001c0795835252206200227f565b508d808a8f8d8f62001aa6565b885162461bcd60e51b8152602081880152602560248201527f4e69635374616b696e673a2061646d696e20697320746865207a65726f206164604482015264647265737360d81b6064820152608490fd5b68ffffffffffffffffff1916680100000000000000011789558b620019d8565b885163f92ee8a960e01b81528690fd5b9050158d620019bb565b303b159150620019b2565b5086620019a5565b8780fd5b600435906001600160a01b0382168203620004f757565b602435906001600160a01b0382168203620004f757565b6001600160401b03811162001cf857604052565b634e487b7160e01b600052604160045260246000fd5b90601f801991011681019081106001600160401b0382111762001cf857604052565b9080601f83011215620004f7578135906001600160401b03821162001cf8578160051b6040519360209362001d688584018762001d0e565b85528380860192820101928311620004f7578301905b82821062001d8d575050505090565b81356001600160a01b0381168103620004f757815290830190830162001d7e565b6001600160401b03811162001cf857601f01601f191660200190565b9181601f84011215620004f7578235916001600160401b038311620004f7576020808501948460051b010111620004f757565b60005b83811062001e115750506000910152565b818101518382015260200162001e00565b9060209162001e3d8151809281855285808601910162001dfd565b601f01601f1916010190565b3360009081527fc1a1989699243bf46e75eba7ea8a7004922f0c0dcea4fbfd2f0472750cc73eaa6020526040902054600080516020620038fe8339815191529060ff161562001e955750565b6044906040519063e2517d3f60e01b82523360048301526024820152fd5b80600052600060205260406000203360005260205260ff604060002054161562001e955750565b6001600160a01b031660008181527fbf4a3f6304a53dcfa06d0b8fb03131fd41d0cd15445036db2d7c8f05ec8abbf660205260408120549091907f3cae3527822146eb05dbfe28ef7fa764bd9bd837e7f55a8d812b9ccca9ac73cc9060ff1662001f7757808352826020526040832082845260205260408320600160ff19825416179055600080516020620038be833981519152339380a4600190565b505090565b6001600160a01b031660008181527fc1a1989699243bf46e75eba7ea8a7004922f0c0dcea4fbfd2f0472750cc73eaa6020526040812054909190600080516020620038fe8339815191529060ff1662001f7757808352826020526040832082845260205260408320600160ff19825416179055600080516020620038be833981519152339380a4600190565b6001600160a01b031660008181527f2244ec1dbeb6480100dc1acbfe06094bb7dee9e15b039f54e2027229c90b12c96020526040812054909190600080516020620038de8339815191529060ff1662001f7757808352826020526040832082845260205260408320600160ff19825416179055600080516020620038be833981519152339380a4600190565b9060009180835282602052604083209160018060a01b03169182845260205260ff6040842054161560001462001f7757808352826020526040832082845260205260408320600160ff19825416179055600080516020620038be833981519152339380a4600190565b6200210982826200213d565b91826200211557505090565b60009182526001602052604090912062002139916001600160a01b03169062002309565b5090565b9060009180835282602052604083209160018060a01b03169182845260205260ff60408420541660001462001f775780835282602052604083208284526020526040832060ff1981541690557ff6391f5c32d9c69d2a47ea670b442974b53935d1edc7fd64eb21e047a839171b339380a4600190565b3d15620021e3573d90620021c78262001dae565b91620021d7604051938462001d0e565b82523d6000602084013e565b606090565b90620022115750805115620021ff57805190602001fd5b604051630a12f52160e11b8152600490fd5b8151158062002246575b62002224575090565b604051639996b31560e01b81526001600160a01b039091166004820152602490fd5b50803b156200221b565b8054821015620022695760005260206000200190600090565b634e487b7160e01b600052603260045260246000fd5b919060018301600090828252806020526040822054156000146200230357845494600160401b861015620022ef5783620022df620022c8886001604098999a0185558462002250565b819391549060031b91821b91600019901b19161790565b9055549382526020522055600190565b634e487b7160e01b83526041600452602483fd5b50925050565b90600182019060009281845282602052604084205490811515600014620023ff5760001991808301818111620023eb57825490848201918211620023d7578181036200239c575b5050508054801562002388578201916200236b838362002250565b909182549160031b1b191690555582526020526040812055600190565b634e487b7160e01b86526031600452602486fd5b620023c1620023b0620022c8938662002250565b90549060031b1c9283928662002250565b9055865284602052604086205538808062002350565b634e487b7160e01b88526011600452602488fd5b634e487b7160e01b87526011600452602487fd5b5050505090565b8051821015620022695760209160051b010190565b60001981146200242b5760010190565b634e487b7160e01b600052601160045260246000fd5b156200244957565b60405162461bcd60e51b815260206004820152602560248201527f4e69635374616b696e673a20746f6b656e20697320746865207a65726f206164604482015264647265737360d81b6064820152608490fd5b8054600160401b81101562001cf857620024bc9160018201815562002250565b819291549060031b9160018060a01b03809116831b921b1916179055565b15620024e257565b60405162461bcd60e51b815260206004820152601a60248201527f4e69635374616b696e673a20616d6f756e74206973207a65726f0000000000006044820152606490fd5b7f9b779b17422d0df92223018b32b4d1fa46e071723d6817e2486d003becc55f006002815414620025585760029055565b604051633ee5aeb560e01b8152600490fd5b60018060a01b03169062002598600080836020829551910182875af162002590620021b3565b9084620021e8565b908151918215159283620025ca575b505050620025b25750565b60249060405190635274afe760e01b82526004820152fd5b81929350906020918101031262000256576020015190811591821503620006fa5750388080620025a7565b15620025fd57565b606460405162461bcd60e51b815260206004820152602060248201527f4e69635374616b696e673a20696e73756666696369656e742062616c616e63656044820152fd5b156200264a5750565b60405162461bcd60e51b8152602060048201529081906200267090602483019062001e22565b0390fd5b60405163a9059cbb60e01b60208201526001600160a01b03929092166024830152604480830193909352918152620026b991620026b360648362001d0e565b6200256a565b565b6000526005602052604060002080544210159081620026d8575090565b60019150015442111590565b80156200242b576000190190565b600454805b620027025750600190565b6200270d81620026bb565b62002724576200271d90620026e4565b80620026f7565b50600090565b90600091825260206005815260026040842001906040518092839183825491828152019187528387209387905b828210620027bc57505050620027709250038262001d0e565b825b8151811015620027b6576001600160a01b038062002791838562002406565b511690841614620027ad57620027a7906200241b565b62002772565b50505050600190565b50505090565b85546001600160a01b03168452600195860195879550938101939091019062002757565b9190811015620022695760051b0190565b358015158103620004f75790565b356001600160a01b0381168103620004f75790565b602081830312620004f7578051906001600160401b038211620004f7570181601f82011215620004f75780516200284b8162001dae565b926200285b604051948562001d0e565b81845260208284010111620004f7576200287c916020808501910162001dfd565b90565b6001600160a01b0390811660008181526003602090815260408083205491949091811662002a965781516306fdde0360e01b81528381600481885afa90811562002a8957849162002a6b575b506200290b602884518093676e6963686f6d652d60c01b8a830152620028fa815180928c868601910162001dfd565b810103600881018452018262001d0e565b82516395d89b4160e01b8152908482600481895afa91821562002a6157859262002a38575b5062002969602185518094603760f91b8b83015262002958815180928d868601910162001dfd565b810103600181018552018362001d0e565b835191610dcf91828401928484106001600160401b0385111762002a245791620029a9620029b79286959462002aef873960808552608085019062001e22565b908382038b85015262001e22565b908786820152606030910152039084f0801562002a18577fd4dee80133423c49627455213d7225cd95ae30aff5dc42210a3cbf6a454611649392916003911695858452528120846bffffffffffffffffffffffff60a01b82541617905580a3565b505051903d90823e3d90fd5b634e487b7160e01b88526041600452602488fd5b62002a599192503d8087833e62002a50818362001d0e565b81019062002814565b903862002930565b84513d87823e3d90fd5b62002a8291503d8086833e62002a50818362001d0e565b38620028cb565b50505051903d90823e3d90fd5b5050505050565b600454805b62002aad5750600090565b604060008281526005602052208054421015908162002adf575b506200287c5762002ad890620026e4565b8062002aa2565b60019150015442103862002ac756fe608060405234620003695762000dcf803803806200001d816200036e565b928339810190608081830312620003695780516001600160401b0392908381116200036957816200005091840162000394565b602091828401519085821162000369576200006d91850162000394565b936200008a6060620000826040870162000406565b950162000406565b94825182811162000269576003918254916001958684811c941680156200035e575b8885101462000348578190601f94858111620002f2575b5088908583116001146200028b576000926200027f575b505060001982861b1c191690861b1783555b8051938411620002695760049586548681811c911680156200025e575b828210146200024957838111620001fe575b508092851160011462000190575093839491849260009562000184575b50501b92600019911b1c19161790555b600580546001600160a01b039384166001600160a01b031991821617909155600680549290931691161790556040516109b390816200041c8239f35b01519350388062000138565b92919084601f1981168860005285600020956000905b89838310620001e35750505010620001c8575b50505050811b01905562000148565b01519060f884600019921b161c1916905538808080620001b9565b858701518955909701969485019488935090810190620001a6565b87600052816000208480880160051c8201928489106200023f575b0160051c019087905b828110620002325750506200011b565b6000815501879062000222565b9250819262000219565b602288634e487b7160e01b6000525260246000fd5b90607f169062000109565b634e487b7160e01b600052604160045260246000fd5b015190503880620000da565b90889350601f19831691876000528a6000209260005b8c828210620002db5750508411620002c2575b505050811b018355620000ec565b015160001983881b60f8161c19169055388080620002b4565b8385015186558c97909501949384019301620002a1565b90915085600052886000208580850160051c8201928b86106200033e575b918a91869594930160051c01915b8281106200032e575050620000c3565b600081558594508a91016200031e565b9250819262000310565b634e487b7160e01b600052602260045260246000fd5b93607f1693620000ac565b600080fd5b6040519190601f01601f191682016001600160401b038111838210176200026957604052565b919080601f84011215620003695782516001600160401b0381116200026957602090620003ca601f8201601f191683016200036e565b92818452828287010111620003695760005b818110620003f257508260009394955001015290565b8581018301518482018401528201620003dc565b51906001600160a01b0382168203620003695756fe608060408181526004918236101561001657600080fd5b600092833560e01c91826306fdde03146106b757508163095ea7b31461060d57816318160ddd146105ee57816323b872dd146104fa578163313ce5671461045a57816340c10f191461039d57816370a08231146103665781637158da7c1461033d5781638da5cb5b1461031457816395d89b41146102115781639dc29fac1461012f57508063a9059cbb146100ff5763dd62ed3e146100b457600080fd5b346100fb57806003193601126100fb57806020926100d06107f5565b6100d8610810565b6001600160a01b0391821683526001865283832091168252845220549051908152f35b5080fd5b50346100fb57806003193601126100fb5760209061012861011e6107f5565b602435903361085e565b5160018152f35b839150346100fb57826003193601126100fb5761014a6107f5565b906024359060018060a01b036101658160055416331461093c565b83169283156101fa578385528460205285852054918383106101c65750508184957fddf252ad1be2c89b69c2b068fc378daa952ba7f163c4a11628f55a4df523b3ef936020938688528785520381872055816002540360025551908152a380f35b865163391434e360e21b81526001600160a01b03909216908201908152602081018390526040810184905281906060010390fd5b8551634b637e8f60e11b8152808301869052602490fd5b8383346100fb57816003193601126100fb57805191809380549160019083821c9282851694851561030a575b60209586861081146102f7578589529081156102d3575060011461027b575b610277878761026d828c0383610826565b51918291826107ac565b0390f35b81529295507f8a35acfbc15ff81a39ae7d344fd709f28e8600b4aa8c65c6b64bfe7fe36bd19b5b8284106102c057505050826102779461026d9282010194868061025c565b80548685018801529286019281016102a2565b60ff19168887015250505050151560051b830101925061026d82610277868061025c565b634e487b7160e01b845260228352602484fd5b93607f169361023d565b5050346100fb57816003193601126100fb5760055490516001600160a01b039091168152602090f35b5050346100fb57816003193601126100fb5760065490516001600160a01b039091168152602090f35b5050346100fb5760203660031901126100fb5760209181906001600160a01b0361038e6107f5565b16815280845220549051908152f35b919050346104565780600319360112610456576103b86107f5565b60055460243592916001600160a01b03916103d6908316331461093c565b16928315610441576002549083820180921161042e575084927fddf252ad1be2c89b69c2b068fc378daa952ba7f163c4a11628f55a4df523b3ef9260209260025585855284835280852082815401905551908152a380f35b634e487b7160e01b865260119052602485fd5b84602492519163ec442f0560e01b8352820152fd5b8280fd5b8284346104e357806003193601126104e357600654825163313ce56760e01b81529360209185919082906001600160a01b03165afa9283156104ee5781936104aa575b60208460ff855191168152f35b9092506020813d82116104e6575b816104c560209383610826565b8101031261045657519160ff831683036104e3575060ff602061049d565b80fd5b3d91506104b8565b509051903d90823e3d90fd5b905082346104e35760603660031901126104e3576105166107f5565b61051e610810565b916044359360018060a01b03831680835260016020528683203384526020528683205491600019830361055a575b60208861012889898961085e565b8683106105c25781156105ab573315610594575082526001602090815286832033845281529186902090859003905582906101288761054c565b8751634a1406b160e11b8152908101849052602490fd5b875163e602df0560e01b8152908101849052602490fd5b8751637dc7a0d960e11b8152339181019182526020820193909352604081018790528291506060010390fd5b5050346100fb57816003193601126100fb576020906002549051908152f35b9050346104565781600319360112610456576106276107f5565b6024359033156106a0576001600160a01b031691821561068957508083602095338152600187528181208582528752205582519081527f8c5be1e5ebec7d5bd14f71427d1e84f3dd0314c0f7b2291e5b200ac8c7c3b925843392a35160018152f35b8351634a1406b160e11b8152908101859052602490fd5b835163e602df0560e01b8152808401869052602490fd5b929150346107a857836003193601126107a857600354600181811c918690828116801561079e575b602095868610821461078b57508488529081156107695750600114610710575b610277868661026d828b0383610826565b929550600383527fc2575a0e9e593c00f959f8c92f12db2869c3395a3b0502d05e2516446f71f85b5b82841061075657505050826102779461026d9282010194386106ff565b8054868501880152928601928101610739565b60ff191687860152505050151560051b830101925061026d82610277386106ff565b634e487b7160e01b845260229052602483fd5b93607f16936106df565b8380fd5b6020808252825181830181905290939260005b8281106107e157505060409293506000838284010152601f8019910116010190565b8181018601518482016040015285016107bf565b600435906001600160a01b038216820361080b57565b600080fd5b602435906001600160a01b038216820361080b57565b90601f8019910116810190811067ffffffffffffffff82111761084857604052565b634e487b7160e01b600052604160045260246000fd5b916001600160a01b03808416928315610923571692831561090a57600090838252816020526040822054908382106108d8575091604082827fddf252ad1be2c89b69c2b068fc378daa952ba7f163c4a11628f55a4df523b3ef958760209652828652038282205586815220818154019055604051908152a3565b60405163391434e360e21b81526001600160a01b03919091166004820152602481019190915260448101839052606490fd5b60405163ec442f0560e01b815260006004820152602490fd5b604051634b637e8f60e11b815260006004820152602490fd5b1561094357565b60405162461bcd60e51b8152602060048201526012602482015271372a37b5b2b71d1037b7363c9037bbb732b960711b6044820152606490fdfea26469706673582212209398000e13423e70909bb8a40e3023d35c99cfcaec084c6730c0c7207530d66564736f6c634300081400332f8788117e7eff1d82e926ec794901d17c78024a50270940304540a733656f0d2f77a577e74d641463b126751020e2142cfbebeeec8041d48f74ff006dccfeefc04b2cf98289df45797d35f42b234466a440f98b1a699fe2759d6ee9a8eea634a2646970667358221220dad3f71bfd41634d169eb664131815f37ecdb660b3a2822ddaac185b35baac6764736f6c63430008140033",
  "linkReferences": {},
  "deployedLinkReferences": {}
}